{
  "_format": "hh-sol-artifact-1",
  "contractName": "Antrix",
  "sourceName": "contracts/4ntrix.sol",
  "abi": [
    {
      "inputs": [
        {
          "internalType": "address",
          "name": "_owner",
          "type": "address"
        }
      ],
      "stateMutability": "nonpayable",
      "type": "constructor"
    },
    {
      "inputs": [
        {
          "internalType": "address",
          "name": "sender",
          "type": "address"
        },
        {
          "internalType": "uint256",
          "name": "tokenId",
          "type": "uint256"
        },
        {
          "internalType": "address",
          "name": "owner",
          "type": "address"
        }
      ],
      "name": "ERC721IncorrectOwner",
      "type": "error"
    },
    {
      "inputs": [
        {
          "internalType": "address",
          "name": "operator",
          "type": "address"
        },
        {
          "internalType": "uint256",
          "name": "tokenId",
          "type": "uint256"
        }
      ],
      "name": "ERC721InsufficientApproval",
      "type": "error"
    },
    {
      "inputs": [
        {
          "internalType": "address",
          "name": "approver",
          "type": "address"
        }
      ],
      "name": "ERC721InvalidApprover",
      "type": "error"
    },
    {
      "inputs": [
        {
          "internalType": "address",
          "name": "operator",
          "type": "address"
        }
      ],
      "name": "ERC721InvalidOperator",
      "type": "error"
    },
    {
      "inputs": [
        {
          "internalType": "address",
          "name": "owner",
          "type": "address"
        }
      ],
      "name": "ERC721InvalidOwner",
      "type": "error"
    },
    {
      "inputs": [
        {
          "internalType": "address",
          "name": "receiver",
          "type": "address"
        }
      ],
      "name": "ERC721InvalidReceiver",
      "type": "error"
    },
    {
      "inputs": [
        {
          "internalType": "address",
          "name": "sender",
          "type": "address"
        }
      ],
      "name": "ERC721InvalidSender",
      "type": "error"
    },
    {
      "inputs": [
        {
          "internalType": "uint256",
          "name": "tokenId",
          "type": "uint256"
        }
      ],
      "name": "ERC721NonexistentToken",
      "type": "error"
    },
    {
      "inputs": [
        {
          "internalType": "address",
          "name": "owner",
          "type": "address"
        }
      ],
      "name": "OwnableInvalidOwner",
      "type": "error"
    },
    {
      "inputs": [
        {
          "internalType": "address",
          "name": "account",
          "type": "address"
        }
      ],
      "name": "OwnableUnauthorizedAccount",
      "type": "error"
    },
    {
      "anonymous": false,
      "inputs": [
        {
          "indexed": true,
          "internalType": "address",
          "name": "owner",
          "type": "address"
        },
        {
          "indexed": true,
          "internalType": "address",
          "name": "approved",
          "type": "address"
        },
        {
          "indexed": true,
          "internalType": "uint256",
          "name": "tokenId",
          "type": "uint256"
        }
      ],
      "name": "Approval",
      "type": "event"
    },
    {
      "anonymous": false,
      "inputs": [
        {
          "indexed": true,
          "internalType": "address",
          "name": "owner",
          "type": "address"
        },
        {
          "indexed": true,
          "internalType": "address",
          "name": "operator",
          "type": "address"
        },
        {
          "indexed": false,
          "internalType": "bool",
          "name": "approved",
          "type": "bool"
        }
      ],
      "name": "ApprovalForAll",
      "type": "event"
    },
    {
      "anonymous": false,
      "inputs": [
        {
          "indexed": true,
          "internalType": "address",
          "name": "attendee",
          "type": "address"
        },
        {
          "indexed": true,
          "internalType": "uint256",
          "name": "occasionId",
          "type": "uint256"
        }
      ],
      "name": "AttendanceMarked",
      "type": "event"
    },
    {
      "anonymous": false,
      "inputs": [
        {
          "indexed": true,
          "internalType": "uint256",
          "name": "id",
          "type": "uint256"
        },
        {
          "indexed": false,
          "internalType": "string",
          "name": "name",
          "type": "string"
        },
        {
          "indexed": false,
          "internalType": "uint256",
          "name": "cost",
          "type": "uint256"
        },
        {
          "indexed": false,
          "internalType": "uint256",
          "name": "maxTickets",
          "type": "uint256"
        },
        {
          "indexed": false,
          "internalType": "string",
          "name": "date",
          "type": "string"
        },
        {
          "indexed": false,
          "internalType": "string",
          "name": "time",
          "type": "string"
        },
        {
          "indexed": false,
          "internalType": "string",
          "name": "location",
          "type": "string"
        },
        {
          "indexed": false,
          "internalType": "string",
          "name": "ipfsImageHash",
          "type": "string"
        },
        {
          "indexed": false,
          "internalType": "bool",
          "name": "markedAttended",
          "type": "bool"
        }
      ],
      "name": "OccasionListed",
      "type": "event"
    },
    {
      "anonymous": false,
      "inputs": [
        {
          "indexed": true,
          "internalType": "address",
          "name": "previousOwner",
          "type": "address"
        },
        {
          "indexed": true,
          "internalType": "address",
          "name": "newOwner",
          "type": "address"
        }
      ],
      "name": "OwnershipTransferred",
      "type": "event"
    },
    {
      "anonymous": false,
      "inputs": [
        {
          "indexed": true,
          "internalType": "address",
          "name": "buyer",
          "type": "address"
        },
        {
          "indexed": true,
          "internalType": "uint256",
          "name": "occasionId",
          "type": "uint256"
        }
      ],
      "name": "TicketsPurchased",
      "type": "event"
    },
    {
      "anonymous": false,
      "inputs": [
        {
          "indexed": true,
          "internalType": "address",
          "name": "from",
          "type": "address"
        },
        {
          "indexed": true,
          "internalType": "address",
          "name": "to",
          "type": "address"
        },
        {
          "indexed": true,
          "internalType": "uint256",
          "name": "tokenId",
          "type": "uint256"
        }
      ],
      "name": "Transfer",
      "type": "event"
    },
    {
      "inputs": [
        {
          "internalType": "address",
          "name": "_admin",
          "type": "address"
        }
      ],
      "name": "addAdmin",
      "outputs": [],
      "stateMutability": "nonpayable",
      "type": "function"
    },
    {
      "inputs": [
        {
          "internalType": "string",
          "name": "_name",
          "type": "string"
        },
        {
          "internalType": "string",
          "name": "_aadharCard",
          "type": "string"
        },
        {
          "internalType": "string",
          "name": "_ipfsImageHash",
          "type": "string"
        }
      ],
      "name": "addUser",
      "outputs": [],
      "stateMutability": "nonpayable",
      "type": "function"
    },
    {
      "inputs": [
        {
          "internalType": "address",
          "name": "",
          "type": "address"
        }
      ],
      "name": "admins",
      "outputs": [
        {
          "internalType": "bool",
          "name": "",
          "type": "bool"
        }
      ],
      "stateMutability": "view",
      "type": "function"
    },
    {
      "inputs": [
        {
          "internalType": "address",
          "name": "to",
          "type": "address"
        },
        {
          "internalType": "uint256",
          "name": "tokenId",
          "type": "uint256"
        }
      ],
      "name": "approve",
      "outputs": [],
      "stateMutability": "nonpayable",
      "type": "function"
    },
    {
      "inputs": [
        {
          "internalType": "address",
          "name": "owner",
          "type": "address"
        }
      ],
      "name": "balanceOf",
      "outputs": [
        {
          "internalType": "uint256",
          "name": "",
          "type": "uint256"
        }
      ],
      "stateMutability": "view",
      "type": "function"
    },
    {
      "inputs": [
        {
          "internalType": "uint256",
          "name": "_id",
          "type": "uint256"
        }
      ],
      "name": "buyTicket",
      "outputs": [],
      "stateMutability": "payable",
      "type": "function"
    },
    {
      "inputs": [],
      "name": "getAllOccasions",
      "outputs": [
        {
          "components": [
            {
              "internalType": "uint256",
              "name": "id",
              "type": "uint256"
            },
            {
              "internalType": "string",
              "name": "name",
              "type": "string"
            },
            {
              "internalType": "uint256",
              "name": "cost",
              "type": "uint256"
            },
            {
              "internalType": "uint256",
              "name": "maxTickets",
              "type": "uint256"
            },
            {
              "internalType": "string",
              "name": "date",
              "type": "string"
            },
            {
              "internalType": "string",
              "name": "time",
              "type": "string"
            },
            {
              "internalType": "string",
              "name": "location",
              "type": "string"
            },
            {
              "internalType": "string",
              "name": "ipfsImageHash",
              "type": "string"
            },
            {
              "internalType": "bool",
              "name": "markedAttended",
              "type": "bool"
            }
          ],
          "internalType": "struct Antrix.Occasion[]",
          "name": "",
          "type": "tuple[]"
        }
      ],
      "stateMutability": "view",
      "type": "function"
    },
    {
      "inputs": [
        {
          "internalType": "uint256",
          "name": "tokenId",
          "type": "uint256"
        }
      ],
      "name": "getApproved",
      "outputs": [
        {
          "internalType": "address",
          "name": "",
          "type": "address"
        }
      ],
      "stateMutability": "view",
      "type": "function"
    },
    {
      "inputs": [
        {
          "internalType": "address",
          "name": "_address",
          "type": "address"
        }
      ],
      "name": "getNumTicketsPurchased",
      "outputs": [
        {
          "internalType": "uint256",
          "name": "",
          "type": "uint256"
        }
      ],
      "stateMutability": "view",
      "type": "function"
    },
    {
      "inputs": [
        {
          "internalType": "uint256",
          "name": "_id",
          "type": "uint256"
        }
      ],
      "name": "getOccasion",
      "outputs": [
        {
          "components": [
            {
              "internalType": "uint256",
              "name": "id",
              "type": "uint256"
            },
            {
              "internalType": "string",
              "name": "name",
              "type": "string"
            },
            {
              "internalType": "uint256",
              "name": "cost",
              "type": "uint256"
            },
            {
              "internalType": "uint256",
              "name": "maxTickets",
              "type": "uint256"
            },
            {
              "internalType": "string",
              "name": "date",
              "type": "string"
            },
            {
              "internalType": "string",
              "name": "time",
              "type": "string"
            },
            {
              "internalType": "string",
              "name": "location",
              "type": "string"
            },
            {
              "internalType": "string",
              "name": "ipfsImageHash",
              "type": "string"
            },
            {
              "internalType": "bool",
              "name": "markedAttended",
              "type": "bool"
            }
          ],
          "internalType": "struct Antrix.Occasion",
          "name": "",
          "type": "tuple"
        }
      ],
      "stateMutability": "view",
      "type": "function"
    },
    {
      "inputs": [
        {
          "internalType": "address",
          "name": "_address",
          "type": "address"
        }
      ],
      "name": "getTicketsByAddress",
      "outputs": [
        {
          "internalType": "uint256[]",
          "name": "",
          "type": "uint256[]"
        }
      ],
      "stateMutability": "view",
      "type": "function"
    },
    {
      "inputs": [
        {
          "internalType": "address",
          "name": "_userAddress",
          "type": "address"
        }
      ],
      "name": "getUser",
      "outputs": [
        {
          "components": [
            {
              "internalType": "string",
              "name": "name",
              "type": "string"
            },
            {
              "internalType": "string",
              "name": "aadharCard",
              "type": "string"
            },
            {
              "internalType": "string",
              "name": "ipfsImageHash",
              "type": "string"
            }
          ],
          "internalType": "struct Antrix.User",
          "name": "",
          "type": "tuple"
        }
      ],
      "stateMutability": "view",
      "type": "function"
    },
    {
      "inputs": [
        {
          "internalType": "uint256",
          "name": "_occasionId",
          "type": "uint256"
        }
      ],
      "name": "getUsersForOccasion",
      "outputs": [
        {
          "internalType": "address[]",
          "name": "",
          "type": "address[]"
        }
      ],
      "stateMutability": "view",
      "type": "function"
    },
    {
      "inputs": [
        {
          "internalType": "uint256",
          "name": "",
          "type": "uint256"
        },
        {
          "internalType": "address",
          "name": "",
          "type": "address"
        }
      ],
      "name": "hasBought",
      "outputs": [
        {
          "internalType": "bool",
          "name": "",
          "type": "bool"
        }
      ],
      "stateMutability": "view",
      "type": "function"
    },
    {
      "inputs": [
        {
          "internalType": "address",
          "name": "owner",
          "type": "address"
        },
        {
          "internalType": "address",
          "name": "operator",
          "type": "address"
        }
      ],
      "name": "isApprovedForAll",
      "outputs": [
        {
          "internalType": "bool",
          "name": "",
          "type": "bool"
        }
      ],
      "stateMutability": "view",
      "type": "function"
    },
    {
      "inputs": [
        {
          "internalType": "string",
          "name": "_name",
          "type": "string"
        },
        {
          "internalType": "uint256",
          "name": "_cost",
          "type": "uint256"
        },
        {
          "internalType": "uint256",
          "name": "_maxTickets",
          "type": "uint256"
        },
        {
          "internalType": "string",
          "name": "_date",
          "type": "string"
        },
        {
          "internalType": "string",
          "name": "_time",
          "type": "string"
        },
        {
          "internalType": "string",
          "name": "_location",
          "type": "string"
        },
        {
          "internalType": "string",
          "name": "_ipfsImageHash",
          "type": "string"
        },
        {
          "internalType": "bool",
          "name": "_markedAttended",
          "type": "bool"
        }
      ],
      "name": "listOccasion",
      "outputs": [],
      "stateMutability": "nonpayable",
      "type": "function"
    },
    {
      "inputs": [
        {
          "internalType": "uint256",
          "name": "_id",
          "type": "uint256"
        },
        {
          "internalType": "address",
          "name": "_attendee",
          "type": "address"
        }
      ],
      "name": "markAttendance",
      "outputs": [],
      "stateMutability": "nonpayable",
      "type": "function"
    },
    {
      "inputs": [],
      "name": "name",
      "outputs": [
        {
          "internalType": "string",
          "name": "",
          "type": "string"
        }
      ],
      "stateMutability": "view",
      "type": "function"
    },
    {
      "inputs": [
        {
          "internalType": "uint256",
          "name": "",
          "type": "uint256"
        }
      ],
      "name": "occasions",
      "outputs": [
        {
          "internalType": "uint256",
          "name": "id",
          "type": "uint256"
        },
        {
          "internalType": "string",
          "name": "name",
          "type": "string"
        },
        {
          "internalType": "uint256",
          "name": "cost",
          "type": "uint256"
        },
        {
          "internalType": "uint256",
          "name": "maxTickets",
          "type": "uint256"
        },
        {
          "internalType": "string",
          "name": "date",
          "type": "string"
        },
        {
          "internalType": "string",
          "name": "time",
          "type": "string"
        },
        {
          "internalType": "string",
          "name": "location",
          "type": "string"
        },
        {
          "internalType": "string",
          "name": "ipfsImageHash",
          "type": "string"
        },
        {
          "internalType": "bool",
          "name": "markedAttended",
          "type": "bool"
        }
      ],
      "stateMutability": "view",
      "type": "function"
    },
    {
      "inputs": [],
      "name": "owner",
      "outputs": [
        {
          "internalType": "address",
          "name": "",
          "type": "address"
        }
      ],
      "stateMutability": "view",
      "type": "function"
    },
    {
      "inputs": [
        {
          "internalType": "uint256",
          "name": "tokenId",
          "type": "uint256"
        }
      ],
      "name": "ownerOf",
      "outputs": [
        {
          "internalType": "address",
          "name": "",
          "type": "address"
        }
      ],
      "stateMutability": "view",
      "type": "function"
    },
    {
      "inputs": [
        {
          "internalType": "address",
          "name": "_admin",
          "type": "address"
        }
      ],
      "name": "removeAdmin",
      "outputs": [],
      "stateMutability": "nonpayable",
      "type": "function"
    },
    {
      "inputs": [],
      "name": "renounceOwnership",
      "outputs": [],
      "stateMutability": "nonpayable",
      "type": "function"
    },
    {
      "inputs": [
        {
          "internalType": "address",
          "name": "from",
          "type": "address"
        },
        {
          "internalType": "address",
          "name": "to",
          "type": "address"
        },
        {
          "internalType": "uint256",
          "name": "tokenId",
          "type": "uint256"
        }
      ],
      "name": "safeTransferFrom",
      "outputs": [],
      "stateMutability": "nonpayable",
      "type": "function"
    },
    {
      "inputs": [
        {
          "internalType": "address",
          "name": "from",
          "type": "address"
        },
        {
          "internalType": "address",
          "name": "to",
          "type": "address"
        },
        {
          "internalType": "uint256",
          "name": "tokenId",
          "type": "uint256"
        },
        {
          "internalType": "bytes",
          "name": "data",
          "type": "bytes"
        }
      ],
      "name": "safeTransferFrom",
      "outputs": [],
      "stateMutability": "nonpayable",
      "type": "function"
    },
    {
      "inputs": [
        {
          "internalType": "address",
          "name": "operator",
          "type": "address"
        },
        {
          "internalType": "bool",
          "name": "approved",
          "type": "bool"
        }
      ],
      "name": "setApprovalForAll",
      "outputs": [],
      "stateMutability": "nonpayable",
      "type": "function"
    },
    {
      "inputs": [
        {
          "internalType": "uint256",
          "name": "_id",
          "type": "uint256"
        },
        {
          "internalType": "string",
          "name": "_name",
          "type": "string"
        },
        {
          "internalType": "uint256",
          "name": "_cost",
          "type": "uint256"
        },
        {
          "internalType": "uint256",
          "name": "_maxTickets",
          "type": "uint256"
        },
        {
          "internalType": "string",
          "name": "_date",
          "type": "string"
        },
        {
          "internalType": "string",
          "name": "_time",
          "type": "string"
        },
        {
          "internalType": "string",
          "name": "_location",
          "type": "string"
        }
      ],
      "name": "setOccasionDetails",
      "outputs": [],
      "stateMutability": "nonpayable",
      "type": "function"
    },
    {
      "inputs": [
        {
          "internalType": "bytes4",
          "name": "interfaceId",
          "type": "bytes4"
        }
      ],
      "name": "supportsInterface",
      "outputs": [
        {
          "internalType": "bool",
          "name": "",
          "type": "bool"
        }
      ],
      "stateMutability": "view",
      "type": "function"
    },
    {
      "inputs": [],
      "name": "symbol",
      "outputs": [
        {
          "internalType": "string",
          "name": "",
          "type": "string"
        }
      ],
      "stateMutability": "view",
      "type": "function"
    },
    {
      "inputs": [
        {
          "internalType": "uint256",
          "name": "tokenId",
          "type": "uint256"
        }
      ],
      "name": "tokenURI",
      "outputs": [
        {
          "internalType": "string",
          "name": "",
          "type": "string"
        }
      ],
      "stateMutability": "view",
      "type": "function"
    },
    {
      "inputs": [],
      "name": "totalOccasions",
      "outputs": [
        {
          "internalType": "uint256",
          "name": "",
          "type": "uint256"
        }
      ],
      "stateMutability": "view",
      "type": "function"
    },
    {
      "inputs": [],
      "name": "totalTickets",
      "outputs": [
        {
          "internalType": "uint256",
          "name": "",
          "type": "uint256"
        }
      ],
      "stateMutability": "view",
      "type": "function"
    },
    {
      "inputs": [
        {
          "internalType": "address",
          "name": "from",
          "type": "address"
        },
        {
          "internalType": "address",
          "name": "to",
          "type": "address"
        },
        {
          "internalType": "uint256",
          "name": "tokenId",
          "type": "uint256"
        }
      ],
      "name": "transferFrom",
      "outputs": [],
      "stateMutability": "nonpayable",
      "type": "function"
    },
    {
      "inputs": [
        {
          "internalType": "address",
          "name": "newOwner",
          "type": "address"
        }
      ],
      "name": "transferOwnership",
      "outputs": [],
      "stateMutability": "nonpayable",
      "type": "function"
    },
    {
      "inputs": [
        {
          "internalType": "address",
          "name": "",
          "type": "address"
        }
      ],
      "name": "users",
      "outputs": [
        {
          "internalType": "string",
          "name": "name",
          "type": "string"
        },
        {
          "internalType": "string",
          "name": "aadharCard",
          "type": "string"
        },
        {
          "internalType": "string",
          "name": "ipfsImageHash",
          "type": "string"
        }
      ],
      "stateMutability": "view",
      "type": "function"
    },
    {
      "inputs": [],
      "name": "withdraw",
      "outputs": [],
      "stateMutability": "nonpayable",
      "type": "function"
    }
  ],
  "bytecode": "0x60806040523480156200001157600080fd5b50604051620062fb380380620062fb8339818101604052810190620000379190620002e0565b806040518060400160405280600681526020017f416e7472697800000000000000000000000000000000000000000000000000008152506040518060400160405280600381526020017f414e5400000000000000000000000000000000000000000000000000000000008152508160009081620000b591906200058c565b508060019081620000c791906200058c565b505050600073ffffffffffffffffffffffffffffffffffffffff168173ffffffffffffffffffffffffffffffffffffffff16036200013f5760006040517f1e4fbdf700000000000000000000000000000000000000000000000000000000815260040162000136919062000684565b60405180910390fd5b6200015081620001b060201b60201c565b506001600c60008373ffffffffffffffffffffffffffffffffffffffff1673ffffffffffffffffffffffffffffffffffffffff16815260200190815260200160002060006101000a81548160ff02191690831515021790555050620006a1565b6000600660009054906101000a900473ffffffffffffffffffffffffffffffffffffffff16905081600660006101000a81548173ffffffffffffffffffffffffffffffffffffffff021916908373ffffffffffffffffffffffffffffffffffffffff1602179055508173ffffffffffffffffffffffffffffffffffffffff168173ffffffffffffffffffffffffffffffffffffffff167f8be0079c531659141344cd1fd0a4f28419497f9722a3daafe3b4186f6b6457e060405160405180910390a35050565b600080fd5b600073ffffffffffffffffffffffffffffffffffffffff82169050919050565b6000620002a8826200027b565b9050919050565b620002ba816200029b565b8114620002c657600080fd5b50565b600081519050620002da81620002af565b92915050565b600060208284031215620002f957620002f862000276565b5b60006200030984828501620002c9565b91505092915050565b600081519050919050565b7f4e487b7100000000000000000000000000000000000000000000000000000000600052604160045260246000fd5b7f4e487b7100000000000000000000000000000000000000000000000000000000600052602260045260246000fd5b600060028204905060018216806200039457607f821691505b602082108103620003aa57620003a96200034c565b5b50919050565b60008190508160005260206000209050919050565b60006020601f8301049050919050565b600082821b905092915050565b600060088302620004147fffffffffffffffffffffffffffffffffffffffffffffffffffffffffffffffff82620003d5565b620004208683620003d5565b95508019841693508086168417925050509392505050565b6000819050919050565b6000819050919050565b60006200046d62000467620004618462000438565b62000442565b62000438565b9050919050565b6000819050919050565b62000489836200044c565b620004a1620004988262000474565b848454620003e2565b825550505050565b600090565b620004b8620004a9565b620004c58184846200047e565b505050565b5b81811015620004ed57620004e1600082620004ae565b600181019050620004cb565b5050565b601f8211156200053c576200050681620003b0565b6200051184620003c5565b8101602085101562000521578190505b620005396200053085620003c5565b830182620004ca565b50505b505050565b600082821c905092915050565b6000620005616000198460080262000541565b1980831691505092915050565b60006200057c83836200054e565b9150826002028217905092915050565b620005978262000312565b67ffffffffffffffff811115620005b357620005b26200031d565b5b620005bf82546200037b565b620005cc828285620004f1565b600060209050601f831160018114620006045760008415620005ef578287015190505b620005fb85826200056e565b8655506200066b565b601f1984166200061486620003b0565b60005b828110156200063e5784890151825560018201915060208501945060208101905062000617565b868310156200065e57848901516200065a601f8916826200054e565b8355505b6001600288020188555050505b505050505050565b6200067e816200029b565b82525050565b60006020820190506200069b600083018462000673565b92915050565b615c4a80620006b16000396000f3fe60806040526004361061020f5760003560e01c80637048027511610118578063a22cb465116100a0578063dd11247e1161006f578063dd11247e146107f2578063e985e9c51461081d578063f2fde38b1461085a578063f5e47f9614610883578063f5f2be60146108c05761020f565b8063a22cb46514610724578063a87430ba1461074d578063b88d4fde1461078c578063c87b56dd146107b55761020f565b80638da5cb5b116100e75780638da5cb5b1461063d578063953865c11461066857806395c5fed41461069357806395d89b41146106bc5780639cb04aef146106e75761020f565b8063704802751461058357806370a08231146105ac578063715018a6146105e957806374bc8656146106005761020f565b80633ccfd60b1161019b57806361a5672d1161016a57806361a5672d1461047f5780636352211e146104c457806367dd74ca1461050157806368c1816e1461051d5780636f77926b146105465761020f565b80633ccfd60b146103d757806342842e0e146103ee578063429b62e514610417578063484cc81f146104545761020f565b80631785f53c116101e25780631785f53c146102e25780631ae4815e1461030b57806323b872dd146103345780632d3961de1461035d5780633c9c3d171461039a5761020f565b806301ffc9a71461021457806306fdde0314610251578063081812fc1461027c578063095ea7b3146102b9575b600080fd5b34801561022057600080fd5b5061023b600480360381019061023691906140be565b6108e9565b6040516102489190614106565b60405180910390f35b34801561025d57600080fd5b506102666109cb565b60405161027391906141b1565b60405180910390f35b34801561028857600080fd5b506102a3600480360381019061029e9190614209565b610a5d565b6040516102b09190614277565b60405180910390f35b3480156102c557600080fd5b506102e060048036038101906102db91906142be565b610a79565b005b3480156102ee57600080fd5b50610309600480360381019061030491906142fe565b610a8f565b005b34801561031757600080fd5b50610332600480360381019061032d919061432b565b610b67565b005b34801561034057600080fd5b5061035b6004803603810190610356919061436b565b610dfe565b005b34801561036957600080fd5b50610384600480360381019061037f9190614209565b610f00565b604051610391919061447c565b60405180910390f35b3480156103a657600080fd5b506103c160048036038101906103bc91906142fe565b611160565b6040516103ce91906144ad565b60405180910390f35b3480156103e357600080fd5b506103ec611206565b005b3480156103fa57600080fd5b506104156004803603810190610410919061436b565b6113c8565b005b34801561042357600080fd5b5061043e600480360381019061043991906142fe565b6113e8565b60405161044b9190614106565b60405180910390f35b34801561046057600080fd5b50610469611408565b60405161047691906146d3565b60405180910390f35b34801561048b57600080fd5b506104a660048036038101906104a19190614209565b6117eb565b6040516104bb999897969594939291906146f5565b60405180910390f35b3480156104d057600080fd5b506104eb60048036038101906104e69190614209565b611aee565b6040516104f89190614277565b60405180910390f35b61051b60048036038101906105169190614209565b611b00565b005b34801561052957600080fd5b50610544600480360381019061053f91906148da565b611e13565b005b34801561055257600080fd5b5061056d600480360381019061056891906142fe565b61207c565b60405161057a9190614a4a565b60405180910390f35b34801561058f57600080fd5b506105aa60048036038101906105a591906142fe565b61228b565b005b3480156105b857600080fd5b506105d360048036038101906105ce91906142fe565b6122ee565b6040516105e091906144ad565b60405180910390f35b3480156105f557600080fd5b506105fe6123a8565b005b34801561060c57600080fd5b5061062760048036038101906106229190614209565b6123bc565b6040516106349190614b4d565b60405180910390f35b34801561064957600080fd5b5061065261274e565b60405161065f9190614277565b60405180910390f35b34801561067457600080fd5b5061067d612778565b60405161068a91906144ad565b60405180910390f35b34801561069f57600080fd5b506106ba60048036038101906106b59190614b6f565b61277e565b005b3480156106c857600080fd5b506106d1612822565b6040516106de91906141b1565b60405180910390f35b3480156106f357600080fd5b5061070e6004803603810190610709919061432b565b6128b4565b60405161071b9190614106565b60405180910390f35b34801561073057600080fd5b5061074b60048036038101906107469190614c42565b6128e3565b005b34801561075957600080fd5b50610774600480360381019061076f91906142fe565b6128f9565b60405161078393929190614c82565b60405180910390f35b34801561079857600080fd5b506107b360048036038101906107ae9190614d6f565b612abb565b005b3480156107c157600080fd5b506107dc60048036038101906107d79190614209565b612ad8565b6040516107e991906141b1565b60405180910390f35b3480156107fe57600080fd5b50610807612b41565b60405161081491906144ad565b60405180910390f35b34801561082957600080fd5b50610844600480360381019061083f9190614df2565b612b47565b6040516108519190614106565b60405180910390f35b34801561086657600080fd5b50610881600480360381019061087c91906142fe565b612bdb565b005b34801561088f57600080fd5b506108aa60048036038101906108a591906142fe565b612ca6565b6040516108b79190614ee1565b60405180910390f35b3480156108cc57600080fd5b506108e760048036038101906108e29190614f03565b612e59565b005b60007f80ac58cd000000000000000000000000000000000000000000000000000000007bffffffffffffffffffffffffffffffffffffffffffffffffffffffff1916827bffffffffffffffffffffffffffffffffffffffffffffffffffffffff191614806109b457507f5b5e139f000000000000000000000000000000000000000000000000000000007bffffffffffffffffffffffffffffffffffffffffffffffffffffffff1916827bffffffffffffffffffffffffffffffffffffffffffffffffffffffff1916145b806109c457506109c382613095565b5b9050919050565b6060600080546109da90615074565b80601f0160208091040260200160405190810160405280929190818152602001828054610a0690615074565b8015610a535780601f10610a2857610100808354040283529160200191610a53565b820191906000526020600020905b815481529060010190602001808311610a3657829003601f168201915b5050505050905090565b6000610a68826130ff565b50610a7282613187565b9050919050565b610a8b8282610a866131c4565b6131cc565b5050565b610a976131de565b610a9f61274e565b73ffffffffffffffffffffffffffffffffffffffff168173ffffffffffffffffffffffffffffffffffffffff1603610b0c576040517f08c379a0000000000000000000000000000000000000000000000000000000008152600401610b03906150f1565b60405180910390fd5b6000600c60008373ffffffffffffffffffffffffffffffffffffffff1673ffffffffffffffffffffffffffffffffffffffff16815260200190815260200160002060006101000a81548160ff02191690831515021790555050565b3373ffffffffffffffffffffffffffffffffffffffff16610b8661274e565b73ffffffffffffffffffffffffffffffffffffffff161480610bf15750600c60003373ffffffffffffffffffffffffffffffffffffffff1673ffffffffffffffffffffffffffffffffffffffff16815260200190815260200160002060009054906101000a900460ff165b610c30576040517f08c379a0000000000000000000000000000000000000000000000000000000008152600401610c279061515d565b60405180910390fd5b6007548211158015610c425750600082115b610c81576040517f08c379a0000000000000000000000000000000000000000000000000000000008152600401610c78906151c9565b60405180910390fd5b600a600083815260200190815260200160002060008273ffffffffffffffffffffffffffffffffffffffff1673ffffffffffffffffffffffffffffffffffffffff16815260200190815260200160002060009054906101000a900460ff16610d1e576040517f08c379a0000000000000000000000000000000000000000000000000000000008152600401610d159061525b565b60405180910390fd5b6001600a600084815260200190815260200160002060008373ffffffffffffffffffffffffffffffffffffffff1673ffffffffffffffffffffffffffffffffffffffff16815260200190815260200160002060006101000a81548160ff02191690831515021790555060016009600084815260200190815260200160002060080160006101000a81548160ff021916908315150217905550818173ffffffffffffffffffffffffffffffffffffffff167f8841d9f49345d61efc842e9624f59b54162b3c8acf4e384fd425957a2be55d8660405160405180910390a35050565b600073ffffffffffffffffffffffffffffffffffffffff168273ffffffffffffffffffffffffffffffffffffffff1603610e705760006040517f64a0ae92000000000000000000000000000000000000000000000000000000008152600401610e679190614277565b60405180910390fd5b6000610e848383610e7f6131c4565b613265565b90508373ffffffffffffffffffffffffffffffffffffffff168173ffffffffffffffffffffffffffffffffffffffff1614610efa578382826040517f64283d7b000000000000000000000000000000000000000000000000000000008152600401610ef19392919061527b565b60405180910390fd5b50505050565b6060600060085467ffffffffffffffff811115610f2057610f1f6147af565b5b604051908082528060200260200182016040528015610f4e5781602001602082028036833780820191505090505b509050600080600190505b600854811161108657600073ffffffffffffffffffffffffffffffffffffffff16610f8382611aee565b73ffffffffffffffffffffffffffffffffffffffff16141580156110095750600a60008681526020019081526020016000206000610fc083611aee565b73ffffffffffffffffffffffffffffffffffffffff1673ffffffffffffffffffffffffffffffffffffffff16815260200190815260200160002060009054906101000a900460ff165b156110735761101781611aee565b83838151811061102a576110296152b2565b5b602002602001019073ffffffffffffffffffffffffffffffffffffffff16908173ffffffffffffffffffffffffffffffffffffffff1681525050818061106f90615310565b9250505b808061107e90615310565b915050610f59565b5060008167ffffffffffffffff8111156110a3576110a26147af565b5b6040519080825280602002602001820160405280156110d15781602001602082028036833780820191505090505b50905060005b82811015611154578381815181106110f2576110f16152b2565b5b602002602001015182828151811061110d5761110c6152b2565b5b602002602001019073ffffffffffffffffffffffffffffffffffffffff16908173ffffffffffffffffffffffffffffffffffffffff168152505080806001019150506110d7565b50809350505050919050565b600080600090506000600190505b60075481116111fc57600a600082815260200190815260200160002060008573ffffffffffffffffffffffffffffffffffffffff1673ffffffffffffffffffffffffffffffffffffffff16815260200190815260200160002060009054906101000a900460ff16156111e95781806111e590615310565b9250505b80806111f490615310565b91505061116e565b5080915050919050565b3373ffffffffffffffffffffffffffffffffffffffff1661122561274e565b73ffffffffffffffffffffffffffffffffffffffff1614806112905750600c60003373ffffffffffffffffffffffffffffffffffffffff1673ffffffffffffffffffffffffffffffffffffffff16815260200190815260200160002060009054906101000a900460ff165b6112cf576040517f08c379a00000000000000000000000000000000000000000000000000000000081526004016112c69061515d565b60405180910390fd5b60004711611312576040517f08c379a0000000000000000000000000000000000000000000000000000000008152600401611309906153a4565b60405180910390fd5b600061131c61274e565b73ffffffffffffffffffffffffffffffffffffffff164760405161133f906153f5565b60006040518083038185875af1925050503d806000811461137c576040519150601f19603f3d011682016040523d82523d6000602084013e611381565b606091505b50509050806113c5576040517f08c379a00000000000000000000000000000000000000000000000000000000081526004016113bc90615456565b60405180910390fd5b50565b6113e383838360405180602001604052806000815250612abb565b505050565b600c6020528060005260406000206000915054906101000a900460ff1681565b6060600060075467ffffffffffffffff811115611428576114276147af565b5b60405190808252806020026020018201604052801561146157816020015b61144e613fe3565b8152602001906001900390816114465790505b5090506000600190505b60075481116117e3576009600082815260200190815260200160002060405180610120016040529081600082015481526020016001820180546114ad90615074565b80601f01602080910402602001604051908101604052809291908181526020018280546114d990615074565b80156115265780601f106114fb57610100808354040283529160200191611526565b820191906000526020600020905b81548152906001019060200180831161150957829003601f168201915b50505050508152602001600282015481526020016003820154815260200160048201805461155390615074565b80601f016020809104026020016040519081016040528092919081815260200182805461157f90615074565b80156115cc5780601f106115a1576101008083540402835291602001916115cc565b820191906000526020600020905b8154815290600101906020018083116115af57829003601f168201915b505050505081526020016005820180546115e590615074565b80601f016020809104026020016040519081016040528092919081815260200182805461161190615074565b801561165e5780601f106116335761010080835404028352916020019161165e565b820191906000526020600020905b81548152906001019060200180831161164157829003601f168201915b5050505050815260200160068201805461167790615074565b80601f01602080910402602001604051908101604052809291908181526020018280546116a390615074565b80156116f05780601f106116c5576101008083540402835291602001916116f0565b820191906000526020600020905b8154815290600101906020018083116116d357829003601f168201915b5050505050815260200160078201805461170990615074565b80601f016020809104026020016040519081016040528092919081815260200182805461173590615074565b80156117825780601f1061175757610100808354040283529160200191611782565b820191906000526020600020905b81548152906001019060200180831161176557829003601f168201915b505050505081526020016008820160009054906101000a900460ff161515151581525050826001836117b49190615476565b815181106117c5576117c46152b2565b5b602002602001018190525080806117db90615310565b91505061146b565b508091505090565b600960205280600052604060002060009150905080600001549080600101805461181490615074565b80601f016020809104026020016040519081016040528092919081815260200182805461184090615074565b801561188d5780601f106118625761010080835404028352916020019161188d565b820191906000526020600020905b81548152906001019060200180831161187057829003601f168201915b5050505050908060020154908060030154908060040180546118ae90615074565b80601f01602080910402602001604051908101604052809291908181526020018280546118da90615074565b80156119275780601f106118fc57610100808354040283529160200191611927565b820191906000526020600020905b81548152906001019060200180831161190a57829003601f168201915b50505050509080600501805461193c90615074565b80601f016020809104026020016040519081016040528092919081815260200182805461196890615074565b80156119b55780601f1061198a576101008083540402835291602001916119b5565b820191906000526020600020905b81548152906001019060200180831161199857829003601f168201915b5050505050908060060180546119ca90615074565b80601f01602080910402602001604051908101604052809291908181526020018280546119f690615074565b8015611a435780601f10611a1857610100808354040283529160200191611a43565b820191906000526020600020905b815481529060010190602001808311611a2657829003601f168201915b505050505090806007018054611a5890615074565b80601f0160208091040260200160405190810160405280929190818152602001828054611a8490615074565b8015611ad15780601f10611aa657610100808354040283529160200191611ad1565b820191906000526020600020905b815481529060010190602001808311611ab457829003601f168201915b5050505050908060080160009054906101000a900460ff16905089565b6000611af9826130ff565b9050919050565b6007548111158015611b125750600081115b611b51576040517f08c379a0000000000000000000000000000000000000000000000000000000008152600401611b48906151c9565b60405180910390fd5b60006009600083815260200190815260200160002090506000816003015411611baf576040517f08c379a0000000000000000000000000000000000000000000000000000000008152600401611ba6906154f6565b60405180910390fd5b600a600083815260200190815260200160002060003373ffffffffffffffffffffffffffffffffffffffff1673ffffffffffffffffffffffffffffffffffffffff16815260200190815260200160002060009054906101000a900460ff1615611c4d576040517f08c379a0000000000000000000000000000000000000000000000000000000008152600401611c4490615562565b60405180910390fd5b6000816002015490506009600084815260200190815260200160002060020154341015611caf576040517f08c379a0000000000000000000000000000000000000000000000000000000008152600401611ca6906155ce565b60405180910390fd5b600960008481526020019081526020016000206003016000815480929190611cd6906155ee565b919050555060086000815480929190611cee90615310565b9190505550611cff3360085461347f565b6001600a600085815260200190815260200160002060003373ffffffffffffffffffffffffffffffffffffffff1673ffffffffffffffffffffffffffffffffffffffff16815260200190815260200160002060006101000a81548160ff02191690831515021790555060008134611d769190615476565b90506000811115611dc9573373ffffffffffffffffffffffffffffffffffffffff166108fc829081150290604051600060405180830381858888f19350505050158015611dc7573d6000803e3d6000fd5b505b833373ffffffffffffffffffffffffffffffffffffffff167fe11731cb4f1eb3ec3dd09bdc96809bb07365f4c881cda3192b397a4bc0b6da4060405160405180910390a350505050565b3373ffffffffffffffffffffffffffffffffffffffff16611e3261274e565b73ffffffffffffffffffffffffffffffffffffffff161480611e9d5750600c60003373ffffffffffffffffffffffffffffffffffffffff1673ffffffffffffffffffffffffffffffffffffffff16815260200190815260200160002060009054906101000a900460ff165b611edc576040517f08c379a0000000000000000000000000000000000000000000000000000000008152600401611ed39061515d565b60405180910390fd5b6007548711158015611eee5750600087115b611f2d576040517f08c379a0000000000000000000000000000000000000000000000000000000008152600401611f24906151c9565b60405180910390fd5b60006009600089815260200190815260200160002090506000600190505b600754811161201757888114158015611fc4575087604051602001611f709190615653565b6040516020818303038152906040528051906020012060096000838152602001908152602001600020600101604051602001611fac9190615702565b60405160208183030381529060405280519060200120145b15612004576040517f08c379a0000000000000000000000000000000000000000000000000000000008152600401611ffb9061578b565b60405180910390fd5b808061200f90615310565b915050611f4b565b50868160010190816120299190615942565b508581600201819055508481600301819055508381600401908161204d9190615942565b508281600501908161205f9190615942565b50818160060190816120719190615942565b505050505050505050565b612084614031565b600b60008373ffffffffffffffffffffffffffffffffffffffff1673ffffffffffffffffffffffffffffffffffffffff1681526020019081526020016000206040518060600160405290816000820180546120de90615074565b80601f016020809104026020016040519081016040528092919081815260200182805461210a90615074565b80156121575780601f1061212c57610100808354040283529160200191612157565b820191906000526020600020905b81548152906001019060200180831161213a57829003601f168201915b5050505050815260200160018201805461217090615074565b80601f016020809104026020016040519081016040528092919081815260200182805461219c90615074565b80156121e95780601f106121be576101008083540402835291602001916121e9565b820191906000526020600020905b8154815290600101906020018083116121cc57829003601f168201915b5050505050815260200160028201805461220290615074565b80601f016020809104026020016040519081016040528092919081815260200182805461222e90615074565b801561227b5780601f106122505761010080835404028352916020019161227b565b820191906000526020600020905b81548152906001019060200180831161225e57829003601f168201915b5050505050815250509050919050565b6122936131de565b6001600c60008373ffffffffffffffffffffffffffffffffffffffff1673ffffffffffffffffffffffffffffffffffffffff16815260200190815260200160002060006101000a81548160ff02191690831515021790555050565b60008073ffffffffffffffffffffffffffffffffffffffff168273ffffffffffffffffffffffffffffffffffffffff16036123615760006040517f89c62b640000000000000000000000000000000000000000000000000000000081526004016123589190614277565b60405180910390fd5b600360008373ffffffffffffffffffffffffffffffffffffffff1673ffffffffffffffffffffffffffffffffffffffff168152602001908152602001600020549050919050565b6123b06131de565b6123ba600061349d565b565b6123c4613fe3565b60075482111580156123d65750600082115b612415576040517f08c379a000000000000000000000000000000000000000000000000000000000815260040161240c906151c9565b60405180910390fd5b60096000838152602001908152602001600020604051806101200160405290816000820154815260200160018201805461244e90615074565b80601f016020809104026020016040519081016040528092919081815260200182805461247a90615074565b80156124c75780601f1061249c576101008083540402835291602001916124c7565b820191906000526020600020905b8154815290600101906020018083116124aa57829003601f168201915b5050505050815260200160028201548152602001600382015481526020016004820180546124f490615074565b80601f016020809104026020016040519081016040528092919081815260200182805461252090615074565b801561256d5780601f106125425761010080835404028352916020019161256d565b820191906000526020600020905b81548152906001019060200180831161255057829003601f168201915b5050505050815260200160058201805461258690615074565b80601f01602080910402602001604051908101604052809291908181526020018280546125b290615074565b80156125ff5780601f106125d4576101008083540402835291602001916125ff565b820191906000526020600020905b8154815290600101906020018083116125e257829003601f168201915b5050505050815260200160068201805461261890615074565b80601f016020809104026020016040519081016040528092919081815260200182805461264490615074565b80156126915780601f1061266657610100808354040283529160200191612691565b820191906000526020600020905b81548152906001019060200180831161267457829003601f168201915b505050505081526020016007820180546126aa90615074565b80601f01602080910402602001604051908101604052809291908181526020018280546126d690615074565b80156127235780601f106126f857610100808354040283529160200191612723565b820191906000526020600020905b81548152906001019060200180831161270657829003601f168201915b505050505081526020016008820160009054906101000a900460ff1615151515815250509050919050565b6000600660009054906101000a900473ffffffffffffffffffffffffffffffffffffffff16905090565b60075481565b604051806060016040528084815260200183815260200182815250600b60003373ffffffffffffffffffffffffffffffffffffffff1673ffffffffffffffffffffffffffffffffffffffff16815260200190815260200160002060008201518160000190816127ed9190615942565b5060208201518160010190816128039190615942565b5060408201518160020190816128199190615942565b50905050505050565b60606001805461283190615074565b80601f016020809104026020016040519081016040528092919081815260200182805461285d90615074565b80156128aa5780601f1061287f576101008083540402835291602001916128aa565b820191906000526020600020905b81548152906001019060200180831161288d57829003601f168201915b5050505050905090565b600a6020528160005260406000206020528060005260406000206000915091509054906101000a900460ff1681565b6128f56128ee6131c4565b8383613563565b5050565b600b60205280600052604060002060009150905080600001805461291c90615074565b80601f016020809104026020016040519081016040528092919081815260200182805461294890615074565b80156129955780601f1061296a57610100808354040283529160200191612995565b820191906000526020600020905b81548152906001019060200180831161297857829003601f168201915b5050505050908060010180546129aa90615074565b80601f01602080910402602001604051908101604052809291908181526020018280546129d690615074565b8015612a235780601f106129f857610100808354040283529160200191612a23565b820191906000526020600020905b815481529060010190602001808311612a0657829003601f168201915b505050505090806002018054612a3890615074565b80601f0160208091040260200160405190810160405280929190818152602001828054612a6490615074565b8015612ab15780601f10612a8657610100808354040283529160200191612ab1565b820191906000526020600020905b815481529060010190602001808311612a9457829003601f168201915b5050505050905083565b612ac6848484610dfe565b612ad2848484846136d2565b50505050565b6060612ae3826130ff565b506000612aee613889565b90506000815111612b0e5760405180602001604052806000815250612b39565b80612b18846138a0565b604051602001612b29929190615a14565b6040516020818303038152906040525b915050919050565b60085481565b6000600560008473ffffffffffffffffffffffffffffffffffffffff1673ffffffffffffffffffffffffffffffffffffffff16815260200190815260200160002060008373ffffffffffffffffffffffffffffffffffffffff1673ffffffffffffffffffffffffffffffffffffffff16815260200190815260200160002060009054906101000a900460ff16905092915050565b612be36131de565b612bec8161396e565b6000600c6000612bfa61274e565b73ffffffffffffffffffffffffffffffffffffffff1673ffffffffffffffffffffffffffffffffffffffff16815260200190815260200160002060006101000a81548160ff0219169083151502179055506001600c60008373ffffffffffffffffffffffffffffffffffffffff1673ffffffffffffffffffffffffffffffffffffffff16815260200190815260200160002060006101000a81548160ff02191690831515021790555050565b6060600060085467ffffffffffffffff811115612cc657612cc56147af565b5b604051908082528060200260200182016040528015612cf45781602001602082028036833780820191505090505b509050600080600190505b6007548111612dad57600a600082815260200190815260200160002060008673ffffffffffffffffffffffffffffffffffffffff1673ffffffffffffffffffffffffffffffffffffffff16815260200190815260200160002060009054906101000a900460ff1615612d9a5780838381518110612d7f57612d7e6152b2565b5b6020026020010181815250508180612d9690615310565b9250505b8080612da590615310565b915050612cff565b5060008167ffffffffffffffff811115612dca57612dc96147af565b5b604051908082528060200260200182016040528015612df85781602001602082028036833780820191505090505b50905060005b82811015612e4d57838181518110612e1957612e186152b2565b5b6020026020010151828281518110612e3457612e336152b2565b5b6020026020010181815250508080600101915050612dfe565b50809350505050919050565b3373ffffffffffffffffffffffffffffffffffffffff16612e7861274e565b73ffffffffffffffffffffffffffffffffffffffff161480612ee35750600c60003373ffffffffffffffffffffffffffffffffffffffff1673ffffffffffffffffffffffffffffffffffffffff16815260200190815260200160002060009054906101000a900460ff165b612f22576040517f08c379a0000000000000000000000000000000000000000000000000000000008152600401612f199061515d565b60405180910390fd5b60076000815480929190612f3590615310565b91905055506040518061012001604052806007548152602001898152602001888152602001878152602001868152602001858152602001848152602001838152602001821515815250600960006007548152602001908152602001600020600082015181600001556020820151816001019081612fb29190615942565b5060408201518160020155606082015181600301556080820151816004019081612fdc9190615942565b5060a0820151816005019081612ff29190615942565b5060c08201518160060190816130089190615942565b5060e082015181600701908161301e9190615942565b506101008201518160080160006101000a81548160ff0219169083151502179055509050506007547fe4928a3885d1b3e090d401099d016ba9036e063405c47d9ac06b015ccf33f6838989898989898989604051613083989796959493929190615a38565b60405180910390a25050505050505050565b60007f01ffc9a7000000000000000000000000000000000000000000000000000000007bffffffffffffffffffffffffffffffffffffffffffffffffffffffff1916827bffffffffffffffffffffffffffffffffffffffffffffffffffffffff1916149050919050565b60008061310b836139f4565b9050600073ffffffffffffffffffffffffffffffffffffffff168173ffffffffffffffffffffffffffffffffffffffff160361317e57826040517f7e27328900000000000000000000000000000000000000000000000000000000815260040161317591906144ad565b60405180910390fd5b80915050919050565b60006004600083815260200190815260200160002060009054906101000a900473ffffffffffffffffffffffffffffffffffffffff169050919050565b600033905090565b6131d98383836001613a31565b505050565b6131e66131c4565b73ffffffffffffffffffffffffffffffffffffffff1661320461274e565b73ffffffffffffffffffffffffffffffffffffffff1614613263576132276131c4565b6040517f118cdaa700000000000000000000000000000000000000000000000000000000815260040161325a9190614277565b60405180910390fd5b565b600080613271846139f4565b9050600073ffffffffffffffffffffffffffffffffffffffff168373ffffffffffffffffffffffffffffffffffffffff16146132b3576132b2818486613bf6565b5b600073ffffffffffffffffffffffffffffffffffffffff168173ffffffffffffffffffffffffffffffffffffffff1614613344576132f5600085600080613a31565b6001600360008373ffffffffffffffffffffffffffffffffffffffff1673ffffffffffffffffffffffffffffffffffffffff168152602001908152602001600020600082825403925050819055505b600073ffffffffffffffffffffffffffffffffffffffff168573ffffffffffffffffffffffffffffffffffffffff16146133c7576001600360008773ffffffffffffffffffffffffffffffffffffffff1673ffffffffffffffffffffffffffffffffffffffff168152602001908152602001600020600082825401925050819055505b846002600086815260200190815260200160002060006101000a81548173ffffffffffffffffffffffffffffffffffffffff021916908373ffffffffffffffffffffffffffffffffffffffff160217905550838573ffffffffffffffffffffffffffffffffffffffff168273ffffffffffffffffffffffffffffffffffffffff167fddf252ad1be2c89b69c2b068fc378daa952ba7f163c4a11628f55a4df523b3ef60405160405180910390a4809150509392505050565b613499828260405180602001604052806000815250613cba565b5050565b6000600660009054906101000a900473ffffffffffffffffffffffffffffffffffffffff16905081600660006101000a81548173ffffffffffffffffffffffffffffffffffffffff021916908373ffffffffffffffffffffffffffffffffffffffff1602179055508173ffffffffffffffffffffffffffffffffffffffff168173ffffffffffffffffffffffffffffffffffffffff167f8be0079c531659141344cd1fd0a4f28419497f9722a3daafe3b4186f6b6457e060405160405180910390a35050565b600073ffffffffffffffffffffffffffffffffffffffff168273ffffffffffffffffffffffffffffffffffffffff16036135d457816040517f5b08ba180000000000000000000000000000000000000000000000000000000081526004016135cb9190614277565b60405180910390fd5b80600560008573ffffffffffffffffffffffffffffffffffffffff1673ffffffffffffffffffffffffffffffffffffffff16815260200190815260200160002060008473ffffffffffffffffffffffffffffffffffffffff1673ffffffffffffffffffffffffffffffffffffffff16815260200190815260200160002060006101000a81548160ff0219169083151502179055508173ffffffffffffffffffffffffffffffffffffffff168373ffffffffffffffffffffffffffffffffffffffff167f17307eab39ab6107e8899845ad3d59bd9653f200f220920489ca2b5937696c31836040516136c59190614106565b60405180910390a3505050565b60008373ffffffffffffffffffffffffffffffffffffffff163b1115613883578273ffffffffffffffffffffffffffffffffffffffff1663150b7a026137166131c4565b8685856040518563ffffffff1660e01b81526004016137389493929190615b2e565b6020604051808303816000875af192505050801561377457506040513d601f19601f820116820180604052508101906137719190615b8f565b60015b6137f8573d80600081146137a4576040519150601f19603f3d011682016040523d82523d6000602084013e6137a9565b606091505b5060008151036137f057836040517f64a0ae920000000000000000000000000000000000000000000000000000000081526004016137e79190614277565b60405180910390fd5b805181602001fd5b63150b7a0260e01b7bffffffffffffffffffffffffffffffffffffffffffffffffffffffff1916817bffffffffffffffffffffffffffffffffffffffffffffffffffffffff19161461388157836040517f64a0ae920000000000000000000000000000000000000000000000000000000081526004016138789190614277565b60405180910390fd5b505b50505050565b606060405180602001604052806000815250905090565b6060600060016138af84613cd6565b01905060008167ffffffffffffffff8111156138ce576138cd6147af565b5b6040519080825280601f01601f1916602001820160405280156139005781602001600182028036833780820191505090505b509050600082602001820190505b600115613963578080600190039150507f3031323334353637383961626364656600000000000000000000000000000000600a86061a8153600a858161395757613956615bbc565b5b0494506000850361390e575b819350505050919050565b6139766131de565b600073ffffffffffffffffffffffffffffffffffffffff168173ffffffffffffffffffffffffffffffffffffffff16036139e85760006040517f1e4fbdf70000000000000000000000000000000000000000000000000000000081526004016139df9190614277565b60405180910390fd5b6139f18161349d565b50565b60006002600083815260200190815260200160002060009054906101000a900473ffffffffffffffffffffffffffffffffffffffff169050919050565b8080613a6a5750600073ffffffffffffffffffffffffffffffffffffffff168273ffffffffffffffffffffffffffffffffffffffff1614155b15613b9e576000613a7a846130ff565b9050600073ffffffffffffffffffffffffffffffffffffffff168373ffffffffffffffffffffffffffffffffffffffff1614158015613ae557508273ffffffffffffffffffffffffffffffffffffffff168173ffffffffffffffffffffffffffffffffffffffff1614155b8015613af85750613af68184612b47565b155b15613b3a57826040517fa9fbf51f000000000000000000000000000000000000000000000000000000008152600401613b319190614277565b60405180910390fd5b8115613b9c57838573ffffffffffffffffffffffffffffffffffffffff168273ffffffffffffffffffffffffffffffffffffffff167f8c5be1e5ebec7d5bd14f71427d1e84f3dd0314c0f7b2291e5b200ac8c7c3b92560405160405180910390a45b505b836004600085815260200190815260200160002060006101000a81548173ffffffffffffffffffffffffffffffffffffffff021916908373ffffffffffffffffffffffffffffffffffffffff16021790555050505050565b613c01838383613e29565b613cb557600073ffffffffffffffffffffffffffffffffffffffff168373ffffffffffffffffffffffffffffffffffffffff1603613c7657806040517f7e273289000000000000000000000000000000000000000000000000000000008152600401613c6d91906144ad565b60405180910390fd5b81816040517f177e802f000000000000000000000000000000000000000000000000000000008152600401613cac929190615beb565b60405180910390fd5b505050565b613cc48383613eea565b613cd160008484846136d2565b505050565b600080600090507a184f03e93ff9f4daa797ed6e38ed64bf6a1f0100000000000000008310613d34577a184f03e93ff9f4daa797ed6e38ed64bf6a1f0100000000000000008381613d2a57613d29615bbc565b5b0492506040810190505b6d04ee2d6d415b85acef81000000008310613d71576d04ee2d6d415b85acef81000000008381613d6757613d66615bbc565b5b0492506020810190505b662386f26fc100008310613da057662386f26fc100008381613d9657613d95615bbc565b5b0492506010810190505b6305f5e1008310613dc9576305f5e1008381613dbf57613dbe615bbc565b5b0492506008810190505b6127108310613dee576127108381613de457613de3615bbc565b5b0492506004810190505b60648310613e115760648381613e0757613e06615bbc565b5b0492506002810190505b600a8310613e20576001810190505b80915050919050565b60008073ffffffffffffffffffffffffffffffffffffffff168373ffffffffffffffffffffffffffffffffffffffff1614158015613ee157508273ffffffffffffffffffffffffffffffffffffffff168473ffffffffffffffffffffffffffffffffffffffff161480613ea25750613ea18484612b47565b5b80613ee057508273ffffffffffffffffffffffffffffffffffffffff16613ec883613187565b73ffffffffffffffffffffffffffffffffffffffff16145b5b90509392505050565b600073ffffffffffffffffffffffffffffffffffffffff168273ffffffffffffffffffffffffffffffffffffffff1603613f5c5760006040517f64a0ae92000000000000000000000000000000000000000000000000000000008152600401613f539190614277565b60405180910390fd5b6000613f6a83836000613265565b9050600073ffffffffffffffffffffffffffffffffffffffff168173ffffffffffffffffffffffffffffffffffffffff1614613fde5760006040517f73c6ac6e000000000000000000000000000000000000000000000000000000008152600401613fd59190614277565b60405180910390fd5b505050565b60405180610120016040528060008152602001606081526020016000815260200160008152602001606081526020016060815260200160608152602001606081526020016000151581525090565b60405180606001604052806060815260200160608152602001606081525090565b6000604051905090565b600080fd5b600080fd5b60007fffffffff0000000000000000000000000000000000000000000000000000000082169050919050565b61409b81614066565b81146140a657600080fd5b50565b6000813590506140b881614092565b92915050565b6000602082840312156140d4576140d361405c565b5b60006140e2848285016140a9565b91505092915050565b60008115159050919050565b614100816140eb565b82525050565b600060208201905061411b60008301846140f7565b92915050565b600081519050919050565b600082825260208201905092915050565b60005b8381101561415b578082015181840152602081019050614140565b60008484015250505050565b6000601f19601f8301169050919050565b600061418382614121565b61418d818561412c565b935061419d81856020860161413d565b6141a681614167565b840191505092915050565b600060208201905081810360008301526141cb8184614178565b905092915050565b6000819050919050565b6141e6816141d3565b81146141f157600080fd5b50565b600081359050614203816141dd565b92915050565b60006020828403121561421f5761421e61405c565b5b600061422d848285016141f4565b91505092915050565b600073ffffffffffffffffffffffffffffffffffffffff82169050919050565b600061426182614236565b9050919050565b61427181614256565b82525050565b600060208201905061428c6000830184614268565b92915050565b61429b81614256565b81146142a657600080fd5b50565b6000813590506142b881614292565b92915050565b600080604083850312156142d5576142d461405c565b5b60006142e3858286016142a9565b92505060206142f4858286016141f4565b9150509250929050565b6000602082840312156143145761431361405c565b5b6000614322848285016142a9565b91505092915050565b600080604083850312156143425761434161405c565b5b6000614350858286016141f4565b9250506020614361858286016142a9565b9150509250929050565b6000806000606084860312156143845761438361405c565b5b6000614392868287016142a9565b93505060206143a3868287016142a9565b92505060406143b4868287016141f4565b9150509250925092565b600081519050919050565b600082825260208201905092915050565b6000819050602082019050919050565b6143f381614256565b82525050565b600061440583836143ea565b60208301905092915050565b6000602082019050919050565b6000614429826143be565b61443381856143c9565b935061443e836143da565b8060005b8381101561446f57815161445688826143f9565b975061446183614411565b925050600181019050614442565b5085935050505092915050565b60006020820190508181036000830152614496818461441e565b905092915050565b6144a7816141d3565b82525050565b60006020820190506144c2600083018461449e565b92915050565b600081519050919050565b600082825260208201905092915050565b6000819050602082019050919050565b6144fd816141d3565b82525050565b600082825260208201905092915050565b600061451f82614121565b6145298185614503565b935061453981856020860161413d565b61454281614167565b840191505092915050565b614556816140eb565b82525050565b60006101208301600083015161457560008601826144f4565b506020830151848203602086015261458d8282614514565b91505060408301516145a260408601826144f4565b5060608301516145b560608601826144f4565b50608083015184820360808601526145cd8282614514565b91505060a083015184820360a08601526145e78282614514565b91505060c083015184820360c08601526146018282614514565b91505060e083015184820360e086015261461b8282614514565b91505061010083015161463261010086018261454d565b508091505092915050565b6000614649838361455c565b905092915050565b6000602082019050919050565b6000614669826144c8565b61467381856144d3565b935083602082028501614685856144e4565b8060005b858110156146c157848403895281516146a2858261463d565b94506146ad83614651565b925060208a01995050600181019050614689565b50829750879550505050505092915050565b600060208201905081810360008301526146ed818461465e565b905092915050565b60006101208201905061470b600083018c61449e565b818103602083015261471d818b614178565b905061472c604083018a61449e565b614739606083018961449e565b818103608083015261474b8188614178565b905081810360a083015261475f8187614178565b905081810360c08301526147738186614178565b905081810360e08301526147878185614178565b90506147976101008301846140f7565b9a9950505050505050505050565b600080fd5b600080fd5b7f4e487b7100000000000000000000000000000000000000000000000000000000600052604160045260246000fd5b6147e782614167565b810181811067ffffffffffffffff82111715614806576148056147af565b5b80604052505050565b6000614819614052565b905061482582826147de565b919050565b600067ffffffffffffffff821115614845576148446147af565b5b61484e82614167565b9050602081019050919050565b82818337600083830152505050565b600061487d6148788461482a565b61480f565b905082815260208101848484011115614899576148986147aa565b5b6148a484828561485b565b509392505050565b600082601f8301126148c1576148c06147a5565b5b81356148d184826020860161486a565b91505092915050565b600080600080600080600060e0888a0312156148f9576148f861405c565b5b60006149078a828b016141f4565b975050602088013567ffffffffffffffff81111561492857614927614061565b5b6149348a828b016148ac565b96505060406149458a828b016141f4565b95505060606149568a828b016141f4565b945050608088013567ffffffffffffffff81111561497757614976614061565b5b6149838a828b016148ac565b93505060a088013567ffffffffffffffff8111156149a4576149a3614061565b5b6149b08a828b016148ac565b92505060c088013567ffffffffffffffff8111156149d1576149d0614061565b5b6149dd8a828b016148ac565b91505092959891949750929550565b60006060830160008301518482036000860152614a098282614514565b91505060208301518482036020860152614a238282614514565b91505060408301518482036040860152614a3d8282614514565b9150508091505092915050565b60006020820190508181036000830152614a6481846149ec565b905092915050565b600061012083016000830151614a8560008601826144f4565b5060208301518482036020860152614a9d8282614514565b9150506040830151614ab260408601826144f4565b506060830151614ac560608601826144f4565b5060808301518482036080860152614add8282614514565b91505060a083015184820360a0860152614af78282614514565b91505060c083015184820360c0860152614b118282614514565b91505060e083015184820360e0860152614b2b8282614514565b915050610100830151614b4261010086018261454d565b508091505092915050565b60006020820190508181036000830152614b678184614a6c565b905092915050565b600080600060608486031215614b8857614b8761405c565b5b600084013567ffffffffffffffff811115614ba657614ba5614061565b5b614bb2868287016148ac565b935050602084013567ffffffffffffffff811115614bd357614bd2614061565b5b614bdf868287016148ac565b925050604084013567ffffffffffffffff811115614c0057614bff614061565b5b614c0c868287016148ac565b9150509250925092565b614c1f816140eb565b8114614c2a57600080fd5b50565b600081359050614c3c81614c16565b92915050565b60008060408385031215614c5957614c5861405c565b5b6000614c67858286016142a9565b9250506020614c7885828601614c2d565b9150509250929050565b60006060820190508181036000830152614c9c8186614178565b90508181036020830152614cb08185614178565b90508181036040830152614cc48184614178565b9050949350505050565b600067ffffffffffffffff821115614ce957614ce86147af565b5b614cf282614167565b9050602081019050919050565b6000614d12614d0d84614cce565b61480f565b905082815260208101848484011115614d2e57614d2d6147aa565b5b614d3984828561485b565b509392505050565b600082601f830112614d5657614d556147a5565b5b8135614d66848260208601614cff565b91505092915050565b60008060008060808587031215614d8957614d8861405c565b5b6000614d97878288016142a9565b9450506020614da8878288016142a9565b9350506040614db9878288016141f4565b925050606085013567ffffffffffffffff811115614dda57614dd9614061565b5b614de687828801614d41565b91505092959194509250565b60008060408385031215614e0957614e0861405c565b5b6000614e17858286016142a9565b9250506020614e28858286016142a9565b9150509250929050565b600081519050919050565b600082825260208201905092915050565b6000819050602082019050919050565b6000614e6a83836144f4565b60208301905092915050565b6000602082019050919050565b6000614e8e82614e32565b614e988185614e3d565b9350614ea383614e4e565b8060005b83811015614ed4578151614ebb8882614e5e565b9750614ec683614e76565b925050600181019050614ea7565b5085935050505092915050565b60006020820190508181036000830152614efb8184614e83565b905092915050565b600080600080600080600080610100898b031215614f2457614f2361405c565b5b600089013567ffffffffffffffff811115614f4257614f41614061565b5b614f4e8b828c016148ac565b9850506020614f5f8b828c016141f4565b9750506040614f708b828c016141f4565b965050606089013567ffffffffffffffff811115614f9157614f90614061565b5b614f9d8b828c016148ac565b955050608089013567ffffffffffffffff811115614fbe57614fbd614061565b5b614fca8b828c016148ac565b94505060a089013567ffffffffffffffff811115614feb57614fea614061565b5b614ff78b828c016148ac565b93505060c089013567ffffffffffffffff81111561501857615017614061565b5b6150248b828c016148ac565b92505060e06150358b828c01614c2d565b9150509295985092959890939650565b7f4e487b7100000000000000000000000000000000000000000000000000000000600052602260045260246000fd5b6000600282049050600182168061508c57607f821691505b60208210810361509f5761509e615045565b5b50919050565b7f43616e6e6f742072656d6f7665206f776e65722061732061646d696e00000000600082015250565b60006150db601c8361412c565b91506150e6826150a5565b602082019050919050565b6000602082019050818103600083015261510a816150ce565b9050919050565b7f43616c6c6572206973206e6f7420616e2061646d696e206f72206f776e657200600082015250565b6000615147601f8361412c565b915061515282615111565b602082019050919050565b600060208201905081810360008301526151768161513a565b9050919050565b7f496e76616c6964206f63636173696f6e20494400000000000000000000000000600082015250565b60006151b360138361412c565b91506151be8261517d565b602082019050919050565b600060208201905081810360008301526151e2816151a6565b9050919050565b7f4164647265737320686173206e6f7420626f756768742061207469636b65742060008201527f666f722074686973206f63636173696f6e000000000000000000000000000000602082015250565b600061524560318361412c565b9150615250826151e9565b604082019050919050565b6000602082019050818103600083015261527481615238565b9050919050565b60006060820190506152906000830186614268565b61529d602083018561449e565b6152aa6040830184614268565b949350505050565b7f4e487b7100000000000000000000000000000000000000000000000000000000600052603260045260246000fd5b7f4e487b7100000000000000000000000000000000000000000000000000000000600052601160045260246000fd5b600061531b826141d3565b91507fffffffffffffffffffffffffffffffffffffffffffffffffffffffffffffffff820361534d5761534c6152e1565b5b600182019050919050565b7f4e6f2062616c616e636520746f20776974686472617700000000000000000000600082015250565b600061538e60168361412c565b915061539982615358565b602082019050919050565b600060208201905081810360008301526153bd81615381565b9050919050565b600081905092915050565b50565b60006153df6000836153c4565b91506153ea826153cf565b600082019050919050565b6000615400826153d2565b9150819050919050565b7f5769746864726177616c206661696c6564000000000000000000000000000000600082015250565b600061544060118361412c565b915061544b8261540a565b602082019050919050565b6000602082019050818103600083015261546f81615433565b9050919050565b6000615481826141d3565b915061548c836141d3565b92508282039050818111156154a4576154a36152e1565b5b92915050565b7f5469636b65747320736f6c64206f757400000000000000000000000000000000600082015250565b60006154e060108361412c565b91506154eb826154aa565b602082019050919050565b6000602082019050818103600083015261550f816154d3565b9050919050565b7f416c726561647920626f756768742061207469636b6574000000000000000000600082015250565b600061554c60178361412c565b915061555782615516565b602082019050919050565b6000602082019050818103600083015261557b8161553f565b9050919050565b7f496e73756666696369656e74207061796d656e74000000000000000000000000600082015250565b60006155b860148361412c565b91506155c382615582565b602082019050919050565b600060208201905081810360008301526155e7816155ab565b9050919050565b60006155f9826141d3565b91506000820361560c5761560b6152e1565b5b600182039050919050565b600081905092915050565b600061562d82614121565b6156378185615617565b935061564781856020860161413d565b80840191505092915050565b600061565f8284615622565b915081905092915050565b60008190508160005260206000209050919050565b6000815461568c81615074565b6156968186615617565b945060018216600081146156b157600181146156c6576156f9565b60ff19831686528115158202860193506156f9565b6156cf8561566a565b60005b838110156156f1578154818901526001820191506020810190506156d2565b838801955050505b50505092915050565b600061570e828461567f565b915081905092915050565b7f43616e6e6f7420736574206f63636173696f6e2064657461696c7320746f206560008201527f78697374696e67206f63636173696f6e2773206e616d65000000000000000000602082015250565b600061577560378361412c565b915061578082615719565b604082019050919050565b600060208201905081810360008301526157a481615768565b9050919050565b60006020601f8301049050919050565b600082821b905092915050565b6000600883026157f87fffffffffffffffffffffffffffffffffffffffffffffffffffffffffffffffff826157bb565b61580286836157bb565b95508019841693508086168417925050509392505050565b6000819050919050565b600061583f61583a615835846141d3565b61581a565b6141d3565b9050919050565b6000819050919050565b61585983615824565b61586d61586582615846565b8484546157c8565b825550505050565b600090565b615882615875565b61588d818484615850565b505050565b5b818110156158b1576158a660008261587a565b600181019050615893565b5050565b601f8211156158f6576158c78161566a565b6158d0846157ab565b810160208510156158df578190505b6158f36158eb856157ab565b830182615892565b50505b505050565b600082821c905092915050565b6000615919600019846008026158fb565b1980831691505092915050565b60006159328383615908565b9150826002028217905092915050565b61594b82614121565b67ffffffffffffffff811115615964576159636147af565b5b61596e8254615074565b6159798282856158b5565b600060209050601f8311600181146159ac576000841561599a578287015190505b6159a48582615926565b865550615a0c565b601f1984166159ba8661566a565b60005b828110156159e2578489015182556001820191506020850194506020810190506159bd565b868310156159ff57848901516159fb601f891682615908565b8355505b6001600288020188555050505b505050505050565b6000615a208285615622565b9150615a2c8284615622565b91508190509392505050565b6000610100820190508181036000830152615a53818b614178565b9050615a62602083018a61449e565b615a6f604083018961449e565b8181036060830152615a818188614178565b90508181036080830152615a958187614178565b905081810360a0830152615aa98186614178565b905081810360c0830152615abd8185614178565b9050615acc60e08301846140f7565b9998505050505050505050565b600081519050919050565b600082825260208201905092915050565b6000615b0082615ad9565b615b0a8185615ae4565b9350615b1a81856020860161413d565b615b2381614167565b840191505092915050565b6000608082019050615b436000830187614268565b615b506020830186614268565b615b5d604083018561449e565b8181036060830152615b6f8184615af5565b905095945050505050565b600081519050615b8981614092565b92915050565b600060208284031215615ba557615ba461405c565b5b6000615bb384828501615b7a565b91505092915050565b7f4e487b7100000000000000000000000000000000000000000000000000000000600052601260045260246000fd5b6000604082019050615c006000830185614268565b615c0d602083018461449e565b939250505056fea264697066735822122094db03f2c125b28515fc654d4852704190c95245ceb98edd1da8454e63f563d364736f6c63430008180033",
  "linkReferences": {},
  "deployedLinkReferences": {}
}